:100000000038001005720000D17200001F2A0000A5
:10001000D5720000D9720000DD7200008060FDEF33
:10002000000000000000000000000000E17200007D
:10003000E572000000000000E97200005B4A000069
:10004000F17200007D4A0000F9720000FD720000AC
:100050000173000069100000F3110000B9120000E4
:100060002D11000015730000197300001D730000AE
:100070002173000025730000297300002D73000018
:10008000317300009F570000397300003D7300007A
:100090004173000045730000497300004D73000078
:1000A000517300005B4D00007F0F00005D73000086
:1000B00061730000FF6D0000697300006D73000044
:1000C0007173000075730000797300007D73000088
:1000D0008173000085730000897300008D73000038
:1000E000917300000000000080000C400880084070
:1000F00008800840080003400800034008C00A4088
:1001000008C00A400440034000C0084000C000404E
:1001100000C0004000000140000001400080094094
:1001200000800940184000401C40004018800040FA
:100130001C800040180009401C00094008800A404B
:100140000C800A40000000000000000000C00940D0
:1001500000C0094000400A4000400A4018400940E1
:100160001C400940000000004D2D00000000000868
:10017000872D0000800002006F2E00000080000B21
:10018000BB2E000000800006F12E000000000000E1
:100190004F2F000000000000912F00000000000021
:1001A000C12F00000000000015300000000000001A
:1001B00049300000000000009930000000000000FD
:1001C0005531000000000000733200000000000004
:1001D000DF32000000010820200108204001082033
:1001E0006001082080010820A0010820C00108202B
:1001F000E0010820000E2707008793030087930380
:04020000006CDC02B0
:0402FC00FFFFFFFF02
:1003000038B5DFF8F40468210170DFF8EC0401214E
:100310004170DFF8E40401218170DFF8DC04DFF8CC
:10032000DC140978C170DFF8D004DFF8D014497804
:100330000171DFF8C404DFF8C41489784171DFF873
:10034000B804DFF8B814C9788171DFF8AC04002173
:10035000C171DFF8A40400210172DFF89C040221BE
:100360004172DFF89404DFF8981409788172DFF89D
:100370008804DFF890140978C1720020050000207D
:100380000400E4B2022C07D2E4B2DFF86C042018B7
:10039000807A4519641CF4E7DFF85C040573DFF824
:1003A00058040D2180F8011101F004F831BD38B571
:1003B000DFF8440468210170DFF83C04012141703A
:1003C000DFF8340402218170DFF82C04DFF82C14EC
:1003D0000978C170DFF82004DFF820144978017132
:1003E000DFF81404DFF8141489784171DFF8080489
:1003F000DFF80814C9788171DFF8FC030021C171AE
:10040000DFF8F40300210172DFF8EC0312214172DE
:100410000C22DFF8F413DFF8F40301F0F5F90622FB
:10042000DFF8EC13DFF8EC0301F0EEF90020050033
:1004300000200400E4B2122C07D2E4B2DFF8B803C3
:100440002018807A4519641CF4E7DFF8AC030577BF
:10045000DFF8A4031D2180F8011100F0ABFF31BDCE
:1004600080B5DFF8940368210170DFF88C03012167
:100470004170DFF8840303218170DFF87C03DFF82B
:100480007C130978C170DFF87003DFF870134978C6
:100490000171DFF86403DFF8641389784171DFF8D4
:1004A0005803DFF85813C9788171DFF84C03002135
:1004B000C171DFF8440300210172DFF83C03002121
:1004C0004172DFF8340300218172DFF82C030B2125
:1004D00080F8011100F06EFF01BD38B5DFF8180398
:1004E00068210170DFF8100301214170DFF8080373
:1004F00004218170DFF80003DFF800130978C17070
:10050000DFF8F402DFF8F41249780171DFF8E8024D
:10051000DFF8E81289784171DFF8DC02DFF8DC12DD
:10052000C9788171DFF8D0020021C171DFF8C802FB
:1005300000210172DFF8C002102141720C22DFF8A5
:100540005419DFF8C80201F05FF9DFF84C090068C0
:10055000000EDFF8A4128875DFF83C090068000C73
:10056000DFF89412C875DFF830090068000ADFF878
:1005700088120876DFF88002DFF81C1909684176D6
:100580000020050000200400E4B2102C07D2E4B2E1
:10059000DFF864022018807A4519641CF4E7DFF85C
:1005A00058028576DFF850021B2180F8011100F017
:1005B00001FF31BD38B5DFF8400268210170DFF876
:1005C000380201214170DFF8300205218170DFF827
:1005D0002802DFF828120978C170DFF81C02DFF862
:1005E0001C1249780171DFF81002DFF810128978C7
:1005F0004171DFF80402DFF80412C9788171DFF875
:10060000F8010021C171DFF8F00100210172DFF86B
:10061000E80108214172DFF8E001DFF8801809786D
:100620008172DFF8D401DFF874184978C172DFF8FD
:10063000C801DFF8681889780173DFF8BC01DFF8BA
:100640005C18C9784173DFF858080068000E6A49E1
:100650008873DFF84C080068000C6749C873DFF83E
:1006600040080068000A644908746348DFF83018DD
:10067000096841740020050000200400E4B2082C41
:1006800006D2E4B25C482018807A4519641CF5E76C
:10069000594885745848132180F8011100F08AFEEA
:1006A00031BD38B55448682101705348012141706B
:1006B000514806218170504850490978C1704E4810
:1006C0004E49497801714C484C49897841714A48F2
:1006D0004A49C978817148480021C17146480021C2
:1006E000017245480C2141724348DFF8B017097880
:1006F00081724148DFF8A4174978C1723E48DFF89B
:100700009C17897801733C48DFF89017C9784173CA
:100710003948DFF89017098889B2090A8173364889
:10072000DFF880170988C1733348DFF87C17098820
:1007300089B2090A01743048DFF86C1709884174DE
:10074000DFF868070068000E2B498874DFF85C0743
:100750000068000C2849C874DFF850070068000AD8
:10076000254908752448DFF84417096841750020B9
:10077000050000200400E4B20C2C06D2E4B21E48AE
:100780002018807A4519641CF5E71B4885751A48BE
:10079000172180F8011100F00DFE31BD80B516481B
:1007A0006821017014480121417013480B218170A8
:1007B000114812490978C1700F48104949780171F0
:1007C0000D480E49897841710B480C49C9788171EF
:1007D00009480021C1710848002101720648002122
:1007E000417205480021817203480B2180F80111F4
:1007F00000F0E0FD01BD0000F4270010482F0010BC
:10080000E62F0010E72F0010482E0010FE270010E2
:10081000542E00100A2800102DE9F041DFF8900650
:100820000068DFF890160968401A46F67911884288
:1008300007D3FFF765FDDFF87C06DFF8741609685B
:100840000160DFF874060078012864D1DFF86006E3
:100850000068DFF868160968401A4FF47A71B0FB37
:10086000F1F0DFF85C160860DFF844060068DFF896
:1008700054160968401A44F26921884207D3FFF7E9
:1008800010FFDFF84006DFF8281609680160DFF87E
:1008900020060068DFF830160968401A4FF47A71B4
:1008A000B0FBF1F0DFF824160860DFF820060068DE
:1008B000B5281ED2DFF81806407B062819D1DFF8CC
:1008C00014060078012814D0DFF8DC05008840F613
:1008D000AD5188420DD2DFF8CC05008846F2D52113
:1008E000884206D2DFF8BC05008844F60C11884225
:1008F00011D2DFF8AC05DFF8B415096801600120FA
:1009000001F04EF8022001F04BF8DFF8AC050021B1
:100910000170FFF74FFE00F0D7FE012840F0B782CC
:10092000DFF8B4050078C043DFF8AC150870DFF8D5
:10093000A805007880465FEAC87003D50A2000F059
:10094000E2FF02E00A2001F02BF8DFF8900590F8B2
:1009500001010500DFF88405002180F80211DFF8AD
:100960007C05002180F80111DFF87005002180F876
:100970000011DFF868050078682840F08782DFF80A
:100980005C05407ADFF85415897A11EB00200700E6
:10099000EDB2BFB217F10C00854240F07682002024
:1009A0000600002004002000C0B280B2BFB2B842EE
:1009B00007D2E4B2DFF824052018C07A8619641C37
:1009C000F1E7BFB2DFF814053818C07AF6B28642F4
:1009D00040F05A82DFF804058078012817D0C0F073
:1009E000568203286FD01BD3052800F00B81C0F07E
:1009F000B380072800F09C81C0F05F81092800F0D7
:100A0000EE81C0F0D0810A2800F022823FE2DFF8B8
:100A1000D00401210170DFF8CC040021016036E22E
:100A2000DFF8BC0401210170DFF8BC040121017072
:100A3000DFF8A804C079DFF8B41408700C22DFF8DE
:100A4000B014DFF8500400F0DFFEDFF848040021A6
:100A50004162DFF84004DFF88414C97D4162DFF8A9
:100A60003404406A0002DFF82C144862DFF82404E2
:100A7000406ADFF86814097E0843DFF818144862FA
:100A8000DFF81004406A0002DFF808144862DFF85B
:100A90000404406ADFF84414497E0843DFF8F41385
:100AA0004862DFF8F003406A0002DFF8E8134862AA
:100AB000DFF8E003406ADFF82414897E0843DFF89A
:100AC000D4134862E3E1DFF82C04012101700C2209
:100AD000DFF81C14DFF8BC0300F096FEDFF8B40367
:100AE00000214162DFF8AC03DFF8F013C97D4162F9
:100AF000DFF8A003406A0002DFF898134862DFF8CD
:100B00009403406ADFF8D413097E0843DFF88413A6
:100B10004862DFF88003406A0002DFF87813486219
:100B2000DFF87003406ADFF8B413497E0843DFF84A
:100B300064134862DFF85C03406A0002DFF8541374
:100B40004862DFF85003406ADFF89013897E08435B
:100B5000DFF8401348629AE1DFF88003C07900288B
:100B60004FD1DFF87803C07ADFF830130870DFF870
:100B70002C03DFF86813097B4170DFF82003DFF8EE
:100B80005C13497B8170DFF81403DFF85013897B15
:100B9000C170DFF8640301210170DFF8F802002161
:100BA0004162DFF8F002DFF83413C97B4162DFF8FD
:100BB000E402406A0002DFF8DC124862DFF8D40287
:100BC000406ADFF81813097C0843B2494862B1480B
:100BD000406A0002AF494862AE48406ADFF8FC1242
:100BE000497C0843AB494862AA48406A0002A949C7
:100BF0004862A848406ADFF8E412897C0843A549A6
:100C0000486244E1DFF8F40201210170A1480021AB
:100C10004162A048B149C97A41629E48406A0002D7
:100C20009C4948629B48406AAC49097B0843994902
:100C300048629848406A0002964948629548406A6E
:100C4000A649497B0843934948629248406A00029A
:100C5000904948628F48406AA049897B08438D4982
:100C600048628C48002181628A489C49C97B816224
:100C70008848806A0002874988628648806A974966
:100C8000097C0843834988628248806A000281495E
:100C900088628048806A9149497C08437D4988621E
:100CA0007C48806A00027B4988627A48806A8B4966
:100CB000897C084377498862E9E0764800218162AF
:100CC00074488649C97A81627248806A0002714913
:100CD00088627048806A8149097B08436D4988624F
:100CE0006C48806A00026B4988626A48806A7B4966
:100CF000497B0843674988626648806A0002654903
:100D000088626448806A7549897B084361498862C2
:100D10007348012101707148C079032807D101206F
:100D200000F03EFE022000F03BFEFFF743FCAEE089
:100D300058480021816257486849C97A81625548FC
:100D4000806A0002534988625248806A6349097B7D
:100D50000843504988624F48806A00024D498862C2
:100D60004C48806A5D49497B08434A498862494842
:100D7000806A0002474988624648806A5749897BF1
:100D80000843444988625648012101705348C0799C
:100D9000032807D1012000F003FE022000F000FE2E
:100DA000FFF708FC73E05648012101703C483F49B9
:100DB000096801604048002101704B480021017022
:100DC000474801210170012000F0EAFD022000F0F7
:100DD000E7FD4C4801210170FFF7ECFB57E040486C
:100DE0000121017010224249474800F00DFD2948B9
:100DF0000021416227483949C97E41622548406A3D
:100E00000002244948622348406A3449097F084364
:100E1000204948621F48406A00021E4948621D4836
:100E2000406A2E49497F08431A4948621948406A76
:100E30000002184948621748406A2849897F0843D8
:100E40001449486213482549C97F80F822101EE0E2
:100E50002348012101702148C07A2C4908701F489D
:100E6000007B2B4908701D48407B2A4908701B48AD
:100E7000807B294908701948C07B284908701748A9
:100E8000007C2749087002E001E000E0FFE7BDE8D0
:100E9000F0810000742E0010742F0010882F0010B5
:100EA000782F0010D42F0010D62F0010982F00108C
:100EB0008C2F00107C2F0010E62F0010A42F0010A4
:100EC0006C2F0010802F00109C2F0010A02F0010FE
:100ED000302F0010F32F0010F12F0010F02600101B
:100EE000E82F0010842F0010F02F0010EF2F0010BB
:100EF000FB260010DE2F0010DF2F0010E12F001066
:100F0000E02F0010E42F00105A2E0010E92F0010DF
:100F1000EA2F0010EB2F0010EC2F0010ED2F001027
:100F2000EE2F001010B440B24109DFF8642801230D
:100F300010F01F04A34042F8213010BC704710B4D9
:100F400040B24109DFF84C28012310F01F04A340F0
:100F500042F8213010BC704740B2002809D540B299
:100F600010F00F02DFF83038D218CB0002F8043C42
:100F700004E040B2DFF82428CB008354704710B55A
:100F800000200400082C6ED22100C9B2002001F01C
:100F90001FF8002865D02100C9B2012001F018F81F
:100FA000002828D02100C9B2002001F05EF8002CF2
:100FB00003D0022C15D00AD31DE0DFF8E40700218E
:100FC00080F802110021002000F0F0FF13E0DFF8AC
:100FD000D407002180F802110021012000F0E6FF73
:100FE00009E0DFF8C407002180F802110021022087
:100FF00000F0DCFFFFE72100C9B2022000F0E8FFAB
:1010000000282ED02100C9B2012001F02EF8002CBA
:1010100003D0022C19D00CD323E0DFF8900700682E
:10102000401CDFF8881708600021002000F0BEFF98
:1010300017E0DFF87C070068401CDFF874170860D1
:101040000021012000F0B2FF0BE0DFF86807006824
:10105000401CDFF8601708600021012000F0A6FFA7
:10106000FFE7641C8EE710BD70B5DFF84C0701F098
:1010700052FA040014F00E000500062D0FD1DFF81F
:10108000380701F03EFA060016F09E06002E06D044
:10109000DFF818070068401CDFF810170860042DFF
:1010A00020D10022DFF8140790F80001DFF80C17B8
:1010B0004118DFF8040700F062F9DFF8001791F833
:1010C00001114018DFF8F41681F80101DFF8EC0691
:1010D000DFF8E81691F8011180F80011DFF8E0065A
:1010E000002101700C2D20D10022DFF8D00690F8ED
:1010F0000001DFF8C8164118DFF8BC0600F03FF920
:10110000DFF8B81691F801114018DFF8B01681F831
:101110000101DFF8A806DFF8A41691F8011180F8A4
:101120000011DFF89C060021017070BD70B5DFF87A
:10113000880601F0F0F9040014F00E000500062DF9
:101140000FD1DFF8740601F0DCF9060016F09E06F8
:10115000002E06D0DFF854060068401CDFF84C165D
:101160000860042D20D10022DFF8500690F800011D
:10117000DFF848164118DFF8400600F000F9DFF804
:101180003C1691F801114018DFF8301681F8010182
:10119000DFF82806DFF8241691F8011180F8001115
:1011A000DFF81C06002101700C2D21D10022DFF890
:1011B0000C0690F80001DFF804164118DFF8F80576
:1011C00000F0DDF8DFF8F41591F801114018DFF8B0
:1011D000EC1581F80101DFF8E405DFF8E01591F87E
:1011E000011180F80011DFF8D405012180F8021107
:1011F00070BD70B5DFF8CC0501F08DF9040014F076
:101200000E000500062D0FD1DFF8B80501F079F9C1
:10121000060016F09E06002E06D0DFF89405006842
:10122000401CDFF88C150860042D20D10022DFF867
:10123000980590F80001DFF890154118DFF8840553
:1012400000F09DF8DFF8801591F801114018DFF8E3
:10125000781581F80101DFF87005DFF86C1591F859
:10126000011180F80011DFF86405002101700C2DD8
:1012700021D10022DFF8500590F80001DFF8481571
:101280004118DFF8400500F07AF8DFF83C1591F8D6
:1012900001114018DFF8301581F80101DFF8280549
:1012A000DFF8241591F8011180F80011DFF8180516
:1012B000012180F8021170BD70B5DFF8140501F04E
:1012C0002AF9040014F00E000500062D0FD1DFF8F6
:1012D000000501F016F9060016F09E06002E06D055
:1012E000DFF8D0040068401CDFF8C8140860042D43
:1012F00020D10022DFF8DC0490F80001DFF8D414DC
:101300004118DFF8CC0400F03AF8DFF8C81491F87F
:1013100001114018DFF8BC1481F80101DFF8B404B2
:10132000DFF8B01491F8011180F80011DFF8A8047B
:10133000002101700C2D21D10022DFF8980490F8D3
:101340000001DFF890144118DFF8840400F017F86A
:10135000DFF8801491F801114018DFF8781481F853
:101360000101DFF87004DFF86C1491F8011180F8C6
:101370000011DFF86004012180F8021170BD2DE931
:10138000F04182B004000D001600002080460023CA
:10139000012200A9200001F02EF80700002F06D03E
:1013A0009DF8000028706D1C18F10108EFE7404619
:1013B000BDE8F68180B5DFF8240400210160DFF884
:1013C0001C04DFF8DC13C160DFF81004DFF8D01371
:1013D00091F801114160DFF804041A21C161DFF8BE
:1013E000FC0300F0C0FC0121002000F0DFFD01BD86
:1013F00080B5DFF8E80301210160DFF8E003DFF8E2
:10140000A413C160DFF8D403DFF8981391F8011139
:101410004160DFF8C8030C21C161DFF8C00300F0B0
:10142000A2FC0121012000F0C1FDDFF878030121B9
:1014300080F8021101BD80B5DFF8A0030221016030
:10144000DFF89803DFF86013C160DFF89003DFF87E
:10145000581391F801114160DFF880030E21C1613A
:10146000DFF8780300F07FFC0121022000F09EFDF0
:10147000DFF83403012180F8021101BD70B586B098
:1014800004000D00160003A800F0A3FF03958DF8DB
:10149000106000A801F071F801208DF80200DFF85B
:1014A0003C0300210161DFF8340300218160DFF893
:1014B0002C0301214161DFF8240300218161DFF861
:1014C0001C030021016201208DF8070001208DF826
:1014D000090032208DF80B0001208DF80400002057
:1014E0008DF8060001208DF80500E4B2002C46D1ED
:1014F00003221921002001F0B2F8B3221A210020A2
:1015000001F0ADF803A9AC4800F0C6FE00A9AA4856
:1015100001F006F80121A84801F038F8AF48002191
:101520000160AE489E49C160AC484FF48071416093
:10153000AA481A21C1619A48002180F802119B48EB
:1015400000210160012200219B4800F096FF01224A
:101550000221994800F091FF09210820FFF7FCFCC7
:101560000820FFF7DFFC9548002180F8021193481E
:10157000002180F801119148002180F80011E4B2A7
:10158000012C46D102220021022001F068F802223B
:101590000121022001F063F802220521022001F05E
:1015A0005EF801208DF8080003A9864800F074FE5B
:1015B00000A9844800F0B4FF01A9824801F009F8AD
:1015C0000121804800F0E2FF844801210160834846
:1015D0007449C16081484FF4807141607F480C219B
:1015E000C1617048002180F802117148002101603A
:1015F00001220021734800F040FF012202217148BE
:1016000000F03BFF09210620FFF7A6FC0620FFF7AC
:1016100089FCE4B2022C43D102220821022001F00D
:101620001EF802220921022001F019F804220621E5
:10163000022001F014F803A9654800F02DFE00A96E
:10164000634800F06DFF01A9614800F0C2FF01216D
:101650005F4800F09BFF6148022101605F485249EA
:10166000C1605E484FF4807141605C480E21C161E9
:101670004D48002180F802114E48002101600122EE
:101680000021534800F0F9FE01220221504800F0E9
:10169000F4FE09210720FFF75FFC0720FFF742FC5B
:1016A00000F032FB1A20FFF74AFC09211A20FFF74D
:1016B00053FC4A4800F057FB1A20FFF733FC012087
:1016C00001F008F806B070BD0020354991F802110C
:1016D000012902D10221080003E0384991F80211E2
:1016E0000800C0B2704700202E4991F8021101296C
:1016F00002D10221080003E0334991F802110800E9
:10170000C0B270470020284991F80211012902D186
:101710000221080003E02F4991F802110800C0B22D
:101720007047264890F8010100280CD02448007822
:10173000401C2349087022480078152803D31F480D
:10174000012180F80211204890F8010100280CD0F6
:101750001E480078401C1D4908701C480078152858
:1017600003D31948012180F802111A4890F80101A9
:1017700000280CD018480078401C174908701648FB
:101780000078652803D31348012180F802117047BF
:1017900000E100E080E100E018ED00E000E400E09E
:1017A000F4270010FC290010042C0010AC2F0010AE
:1017B000B02F0010B42F001000C00940F026001018
:1017C000F82F001000000140F8280010F92F001039
:1017D00000800940002B0010FA2F0010A02E0010EE
:1017E00080B500224FF416510120FFF747FE022278
:1017F0004FF416610220FFF741FE00224FF416411C
:101800000020FFF73BFE01BD70B504000D0016007F
:1018100032002900200000F0A3FF200070BD10B4AA
:1018200050F8041B81B102681218001D50F8043BE7
:10183000DC0744BFA9F10104E31852F8044B43F854
:10184000044B091FF9D1EBE710BC704738B50020F5
:101850000500EDB2022D1FD2EDB2DFF8900410F8B2
:10186000150001F018F804000120EDB2DFF87C1437
:1018700011EB450191F901108840044205D0EDB209
:10188000DFF86C040021295404E0EDB2DFF86004B5
:10189000012129546D1CDCE700200500EDB2022D6A
:1018A00030D2EDB2DFF84804285CEDB2DFF8441422
:1018B000695C884217D1EDB2DFF83C04285C401C1B
:1018C000EDB2DFF834146854EDB2DFF82C04285C74
:1018D0000B280DD3EDB2DFF81004EDB2DFF81014D1
:1018E000695C295404E0EDB2DFF80C0400212954AE
:1018F000EDB2DFF80004EDB2DFF8F413695C2954AF
:101900006D1CCBE731BD10B50400E4B2082C14D235
:1019100001220120E4B2DFF8E41311EB440111F9D4
:10192000011C10FA01F1E4B2DFF8D00310EB44001F
:1019300010F8020C00F09CFF31E0E4B20A2C17D33F
:10194000E4B20C2C14D201220120E4B2DFF8B0136F
:1019500011EB440111F9131C10FA01F1E4B2DFF8A4
:10196000A00310EB440010F8140C00F081FF16E007
:10197000E4B2142C13D101220120E4B2DFF8841365
:1019800011EB440111F9271C10FA01F1E4B2DFF860
:10199000740310EB440010F8280C00F069FF10BD30
:1019A00010B50400E4B2072C12D200220120E4B2E8
:1019B000D24911EB440111F9011C10FA01F1E4B212
:1019C000CE4810EB440010F8020C00F051FF2DE05F
:1019D000E4B20A2C15D3E4B20C2C12D2002201205E
:1019E000E4B2C74911EB440111F9131C10FA01F1DB
:1019F000E4B2C34810EB440010F8140C00F038FFB8
:101A000014E0E4B2142C11D100220120E4B2BD494B
:101A100011EB440111F9271C10FA01F1E4B2B948A5
:101A200010EB440010F8280C00F022FF10BD38B570
:101A30000400E4B2072C1CD2E4B2B04810EB44001E
:101A400010F8020C00F027FF05000120E4B2AB49BA
:101A500011EB440111F9011C8840054204D020001B
:101A6000C0B2FFF79DFF46E02000C0B2FFF74BFF7A
:101A700041E0E4B20A2C1FD3E4B20C2C1CD2E4B235
:101A80009F4810EB440010F8140C00F004FF050010
:101A90000120E4B29A4911EB440111F9131C88406A
:101AA000054204D02000C0B2FFF77AFF23E02000F7
:101AB000C0B2FFF728FF1EE0E4B2142C1BD1E4B241
:101AC000904810EB440010F8280C00F0E4FE0500EC
:101AD0000120E4B28B4911EB440111F9271C884025
:101AE000054204D02000C0B2FFF75AFF03E02000F7
:101AF000C0B2FFF708FF31BD10B50024002004007C
:101B0000E4B2022C33D200220120E4B2774911EB77
:101B1000440191F9011010FA01F1C9B2E4B273481D
:101B200010F8140000F09BFD00220120E4B26F4980
:101B300011EB440191F9011010FA01F1E4B26B4884
:101B400010F8140000F069FE10220120E4B2674989
:101B500011EB440191F9011010FA01F1C9B2E4B29C
:101B6000624810F8140000F08FFD641CC8E70020E4
:101B70000400E4B2072C43D200220120E4B25F4902
:101B800011EB440191F9011010FA01F1C9B2E4B26C
:101B90005A4810F8140000F062FD00220120E4B25F
:101BA000564911EB440191F9011010FA01F1E4B228
:101BB000524810F8140000F05BFE01220120E4B24C
:101BC0004E4911EB440191F9011010FA01F1E4B210
:101BD0004A4810F8140000F020FE10220120E4B260
:101BE000464911EB440191F9011010FA01F1C9B213
:101BF000E4B2424810F8140000F046FD641CB8E757
:101C000000200400E4B2022C33D200220120E4B20E
:101C10003B4911EB440191F9011010FA01F1C9B2ED
:101C2000E4B2374810F8140000F019FD0122012039
:101C3000E4B2334911EB440191F9011010FA01F1BA
:101C4000E4B22F4810F8140000F0E7FD1022012044
:101C5000E4B22B4911EB440191F9011010FA01F1A2
:101C6000C9B2E4B2264810F8140000F00DFD641C5F
:101C7000C8E700200400E4B2012C33D20022012086
:101C8000E4B2204911EB440191F9011010FA01F17D
:101C9000C9B2E4B21B4810F8140000F0E0FC0122C5
:101CA0000120E4B2174911EB440191F9011010FA37
:101CB00001F1E4B2134810F8140000F0AEFD102258
:101CC0000120E4B20F4911EB440191F9011010FA1F
:101CD00001F1C9B2E4B20B4810F8140000F0D4FCD2
:101CE000641CC8E710BD0000CC2F0010C8720000B3
:101CF000CE2F0010D02F0010D22F0010F470000053
:101D0000CC720000D627000080B501215FF00050A2
:101D100000F0F2FDDFF8700300210160DFF86C03D2
:101D200000210160DFF8680300210160DFF864032F
:101D300000210160DFF8600300210160DFF85C032F
:101D400000210160DFF8580300210160DFF854032F
:101D500000210160DFF85003FF210160DFF84C0330
:101D6000FF21016001BD70B40100DFF84403006889
:101D700001250E68B5402840000601D0002013E17F
:101D80000868CC4D55F82000020001200D68A840DD
:101D9000C0B2C54D286001200D68A840C0B2C34D37
:101DA00028600020D06000201061086A90604869B7
:101DB000002805D0022844D019D303286BD097E01F
:101DC000C86810600869506048680005000D0D7A09
:101DD00015F0070550EA85400D7A15F0070550EA21
:101DE000455040F00C4050F41030D06082E0C8689C
:101DF0001060C869B04D55F8200050604868000573
:101E0000000DCD69AD4EAD5D15F0070550EA05300A
:101E1000CD69AA4EAD5D15F0070550EAC530CD6914
:101E2000A74EAD5D15F0070550EA8540CD69A44E7B
:101E3000AD5D15F0070550EA455050F00440D06004
:101E400058E088699C4D55F8200010600869506082
:101E500048680005000D8D69984EAD5D15F00705C9
:101E600050EA05308D69954EAD5D15F0070550EAD5
:101E7000C5308D69924EAD5D15F0070550EA85407D
:101E80008D698F4EAD5D15F0070550EA455050F055
:101E90000840D0602EE08869874D55F8200010601A
:101EA000C869854D55F82000506048680005000D50
:101EB0008D69824EAD5D15F0070550EA0530CD699C
:101EC0007E4EAD5D15F0070550EAC5308D697C4E3C
:101ED000AD5D15F0070550EA8540CD69784EAD5DE2
:101EE00015F0070550EA455050F00040D06001E081
:101EF000002059E08869082817D08869092814D07B
:101F00008869102809D36F48006801258E69103E42
:101F1000B54028436B4D286007E06A4800680125FA
:101F20008E69B540A843674D2860C869082818D055
:101F3000C869092815D0C869102809D36148006804
:101F40000125CE69103EB54028435E4D286008E06B
:101F50005C4800680125CE69083EB540A843594D4C
:101F6000286059480125056057480068C007FBD51F
:101F700088690300102B01D3103BFFE7C8690400F8
:101F8000102C01D3103CFFE7087D10F0070013F080
:101F90001F056D0055EAC02014F01F0550EA85109A
:101FA00050F440401061012070BC7047C0B2414BFA
:101FB00053F820301A00C9B2012904D1136953F033
:101FC0000103136103E013695B085B001361704751
:101FD0000200D2B2002A06D0022A1AD00ED3042A56
:101FE0002DD021D336E03948006801238B401840BA
:101FF000000601D0012037E0002035E034480068B9
:1020000001238B401840000601D001202CE0002065
:102010002AE03048006801238B401840000601D0B8
:10202000012021E000201FE02B48006801238B40A5
:102030001840000601D0012016E0002014E02748D7
:10204000006801238B401840000601D001200BE0FE
:10205000002009E01648006801238B401840000664
:1020600001D0012000E000207047C0B2002805D157
:1020700001228A40D2B20C4B1A6004E001228A404D
:10208000D2B20A4B1A6070471001082030010820B4
:10209000500108207001082090010820B00108209C
:1020A000D0010820F00108200800082010000820B6
:1020B0001C000820F0000010000000103870000024
:1020C00058700000C4C10F403000082000000820F4
:1020D000040008200C000820180008201400082024
:1020E0002DE9F34F8BB000208DF80800012000F09F
:1020F000EBFB07905FF0FF3003900020059000207D
:10210000049000200021CDE9080101200700102FD4
:102110003FD200200600BE4236D2079A00231B079A
:1021200043EA12131207BA465FF0000BAAFB020142
:102130000AFB03110BFB02110C9AF3195A430023FB
:1021400000F0F6FB04000D00A146A846B9F1004FCF
:1021500003D9D9F1000918F10108B8F1000F02D034
:10216000B8F1011F00D30DE0039881450AD2CDF8E4
:102170000C9040460021CDE908010596049703988C
:10218000002801D0761CC6E70398002801D07F1CE8
:10219000BDE7DDE90801002903D1002801D10020B5
:1021A00077E007980009049948430021CDE9000130
:1021B000DDE908AB0498059908180021A0FB0A2363
:1021C00000FB0B3301FB0A33DDE9000100F0B0FB3B
:1021D000069006980C99884204D20C980699401AE9
:1021E000039003E006980C99401A03900398642129
:1021F00048430C99B0FBF1F003900398032846D2B2
:102200000B98DFF82C1488421FD10B98007B50F0FC
:1022100080000B990873DDE9080180B2000A0B9970
:1022200008710B9ADDE9080110700B98007B10F023
:102230007F000B9908730498059911F00F0151EA7A
:102240000010C0B20B9988621EE00B98007B50F022
:1022500080000B990873DDE9080180B2000A0B9930
:1022600008710B9ADDE9080110700B98007B10F0E3
:102270007F000B9908730498059911F00F0151EA3A
:1022800000100B9981F8280001208DF808009DF8B6
:1022900008000DB0BDE8F08F70B504000D00DFF848
:1022A0009403844203D10121082000F025FBDFF8CC
:1022B0008003844203D10121102000F01DFBDFF8D0
:1022C0007803844204D101215FF0807000F014FB98
:1022D000DFF86803844204D101215FF0007000F050
:1022E0000BFB0720207200202072207DC00702D542
:1022F00020780600F9E7802084F83000207D8006F1
:10230000FCD5002084F8300000206060002020739D
:1023100000202062002084F84C00002084F8540043
:10232000002084F85000207D0600DFF8040384427A
:1023300004D100202074207E060002E0002084F8F2
:10234000240029682000FFF7CBFEDFF8E402844276
:1023500004D1207B10F0C000060003E0207B10F0C9
:10236000C00006006879002803D0022805D001D3F8
:1023700006E007E056F0010604E056F0020601E030
:1023800056F003062879002815D056F0080628795B
:10239000012806D00FD3032807D003D3042807D081
:1023A00009E008E056F0100605E056F0200602E0CD
:1023B00056F03006FFE7A879012802D156F004064E
:1023C000FFE7DFF86C02844201D1267300E0267338
:1023D00070BD5FF4E13101600321417100210171A1
:1023E000002181717047DFF84812884201D10078DE
:1023F00000E0007870472DE9F84F04000D0016004A
:102400001F00AB46B046FFB2012F1FD1002081460E
:10241000B8F1000F2ED05FF0FF308246207DC0075C
:1024200005D4BAF1000F02D0BAF1010AF6E7BAF109
:10243000000F1FD02000FFF7D6FF8BF800001BF124
:10244000010BB8F1010819F10109E1E7002081460B
:10245000B8F1000F0ED0207DC0070BD52000FFF78C
:10246000C2FF8BF800001BF1010B19F10109B8F153
:102470000108EDE74846BDE8F28F30B4C9B2002943
:1024800009D002290DD009D3042910D00CD3062974
:1024900014D00FD315E00124230012E002242300FE
:1024A0000FE0042423000CE00824230009E080242A
:1024B000230006E04FF48074230002E04FF4007420
:1024C0002300D2B2012A0AD1594CA04203D1446858
:1024D0001C43446013E044681C4344600FE0544CC8
:1024E000A04206D1446840F28F359D432C404460A1
:1024F00005E0446840F207359D432C40446030BC01
:10250000704701004A48814203D14D480078C0B26B
:1025100000E0087D7047806840F2CF310840704786
:10252000002252F00102CB78002B03D0022B05D001
:1025300001D306E007E052F0400204E052F08002CE
:1025400001E052F0C0024B78012B01D152F004029D
:102550000B78012B01D152F002028B78012B01D1B3
:1025600052F00802324B984203D112F0CF030372AB
:1025700002E012F0CF030372704700218170032143
:10258000C17001210170012141707047C9B2012958
:1025900010D1274A904206D190F8302052F08002A4
:1025A00080F8302014E090F8302052F0800280F85B
:1025B00030200DE01E4A904205D190F830200023D3
:1025C00080F8303004E090F83020002380F830307C
:1025D000704700231A00CB78012B11D152F0100262
:1025E0004B79012B01D152F020020B79012B04D140
:1025F0000F4B984201D152F00802CB7980F8543049
:102600000B78012B01D152F001028B78012B04D100
:1026100052F004028B7980F850304B78002B01D1B6
:1026200052F0020212F03F0380F84C307047000075
:102630000000014000C000400080094000C0094087
:102640001400014002000020D2B2C9B211EB4213C3
:102650009B0003F1804313F5303318007047F8B541
:1026600004000D00160000272900C9B22000C0B2E6
:10267000FFF7E8FF0700387810F007003860386887
:10268000F6B230433860F1BDF8B504000D00160015
:1026900000272900C9B22000C0B2FFF7D3FF07000E
:1026A000386830F0180038603868F6B23043386067
:1026B000F1BD50F8041B61B150F8042BD30744BF9F
:1026C000A9F101039A18002342F8043B091FFAD12B
:1026D000EFE77047C0B200280AD11D4900220A6006
:1026E0001C494FF6FF720A601B4900220A701CE069
:1026F000C0B201280AD1164915220A6015494FF6C1
:10270000FF720A60144901220A700EE0C0B202286A
:102710000AD10F4936220A600E495FF0FF320A6083
:102720000D4902220A7000E0FEE7704730B4030052
:102730000A4804001D00002904D0287820706D1C70
:10274000491EF8E70548006830BC704700000000EB
:102750000000092004000920FB2F001008000920B8
:1027600062B38B0708D0521E11F8013B00F8013B01
:1027700000F024808B07F6D1830740F0208000BF53
:10278000103A07D330B4B1E83810103AA0E8381046
:10279000F9D230BC530724BFB1E80810A0E80810F4
:1027A00044BF51F8043B40F8043BD20724BF31F842
:1027B000022B20F8022B44BF0B7803707047083AB5
:1027C00007D3B1E80810083A40F8043B40F804CBBE
:1027D000F7D25307E4E7030501000020C9B200293E
:1027E00008D002290CD008D304290FD00BD3052917
:1027F0000FD011E02E4A10000EE02E4A10000BE020
:102800002D4A100008E02D4A100005E02C4A100067
:1028100002E02C4A1000FFE7704770B504000D007D
:1028200016002000C0B2FFF7D7FF002809D0F6B28B
:10283000002E03D001682943016002E00168A9432A
:10284000016070BD38B504000D002000C0B2FFF774
:10285000C3FF002800D0856131BD38B504000D00EC
:102860002000C0B2FFF7B8FF002800D0C56131BD1D
:1028700070B504000D001600F6B2002E05D1290037
:102880002000C0B2FFF7E9FF04E029002000C0B239
:10289000FFF7D8FF70BD10B504002000C0B2FFF7ED
:1028A0009BFF0100002901D0486900E0002010BD15
:1028B00000800920208009204080092060800920B4
:1028C00080800920A08009200100C9B2002905D01C
:1028D000022909D005D3032909D00BE00F4800686D
:1028E00009E00F48006806E00E48006803E00E4863
:1028F000006800E0FEE77047C9B2012905D10B4A24
:1029000012680243094B1A6007E0C9B2002904D1DA
:10291000064A12688243054B1A6070471001001086
:1029200014010010180100101C010010C4C00F4059
:102930001B4213D1094236D12AB18446B0FBF2F0D2
:1029400002FB10C2704700F06BB8FCD300220023DA
:1029500070470B000200002100207047904271EB8D
:10296000030CF6D370B5B1FA81F4B3FA83F52C1BDE
:10297000A340C4F1200532FA05F63343A2405FF0CC
:102980000046E64002E05B085FEA3202841A71EB1F
:10299000030524BF204629467641F4D302000B00EC
:1029A0003000002170BD012ACFD970B5140C20D0A1
:1029B000B1FA81F4B2FA82F5C4F120046419B4F1D9
:1029C0002006D6D3B2405FF00044F440002502E078
:1029D00052085FEA3303C61A71EB020E24BF304679
:1029E000714664416D41F3D302000B0020002900C1
:1029F00070BD0C46B1FBF2F102FB11452D0445EA16
:102A00001045B5FBF2F402FB145580B240EA0545CF
:102A1000B5FBF2F002FB105240EA044070BD704773
:102A20007047000010B54FF4E0720021DFF8040792
:102A300000F0E0FC00200400E4B20E2C0ED20822CC
:102A4000E4B2DFF8780510EBC401E4B2DFF8E40685
:102A500010EB4410FEF7D8FE641CEDE7DFF8AC0580
:102A6000DFF8D0160160DFF8A805DFF8C8160160AE
:102A7000DFF8C80500210160DFF8C405002101600E
:102A8000DFF8B00600218161DFF8A806DFF8F41551
:102A90008160DFF8A006DFF8AC15C160DFF89406AE
:102AA00000210161DFF88C0600214161DFF8840616
:102AB000DFF880168165DFF87C06DFF8CC158164CD
:102AC000DFF87006DFF8C415C164DFF8680600217E
:102AD0000165DFF8600600214165DFF85806DFF880
:102AE00054168163DFF84C0600218162DFF844064A
:102AF0000021C162DFF83C0600210163DFF83406E3
:102B000000214163DFF82C06DFF878158167DFF8D4
:102B10002406DFF87C158166DFF818060021C166FF
:102B2000DFF8100600210167DFF808060021416781
:102B3000DFF80006DFF85015C0F89810DFF8F4054C
:102B4000DFF85015C0F88810DFF8E8050021C0F85C
:102B50008C10DFF8E0050021C0F89010DFF8D405F4
:102B60000021C0F89410DFF8CC05DFF8C815C0F8D4
:102B7000B810DFF8C005DFF8C015C0F8A810DFF8FE
:102B8000B405DFF8B815C0F8AC10DFF8A805DFF819
:102B9000B015C0F8B010DFF89C050021C0F8B410E3
:102BA000DFF890050021C0F8D810DFF88805DFF8BD
:102BB000D414C0F8C810DFF87C050021C0F8CC1090
:102BC000DFF870050021C0F8D010DFF8680500219B
:102BD000C0F8D410DFF85C050021C0F8F810DFF869
:102BE0005405DFF8A014C0F8E810DFF8480500210C
:102BF000C0F8EC10DFF83C050021C0F8F010DFF859
:102C000034050021C0F8F410DFF82805DFF874144B
:102C1000C0F81811DFF81C05DFF87814C0F80811A7
:102C2000DFF810050021C0F80C11DFF808050021BD
:102C3000C0F81011DFF8FC040021C0F81411DFF80F
:102C4000F404DFF84014C0F83811DFF8E804DFF8C6
:102C5000F414C0F82811DFF8DC040021C0F82C11AE
:102C6000DFF8D0040021C0F83011DFF8C8040021DB
:102C7000C0F83411DFF8BC04DFF80814C0F85811AC
:102C8000DFF8B004DFF8C014C0F84811DFF8A4047E
:102C90000021C0F84C11DFF89C040021C0F850114D
:102CA000DFF890040021C0F85411DFF888040021F7
:102CB000C0F87811DFF87C04DFF89014C0F86811D0
:102CC000DFF87004DFF88814C0F86C11DFF86404D2
:102CD0000021C0F87011DFF85C040021C0F8741105
:102CE000DFF850040021C0F89811DFF84804DFF83D
:102CF0005C14C0F88811DFF83C04DFF84C14C0F80D
:102D00008C11DFF830040021C0F89011DFF82404A2
:102D10000021C0F89411DFF81C04DFF81814C0F883
:102D2000B811DFF810040021C0F8A811DFF804047E
:102D30000021C0F8AC11DFF8FC030021C0F8B0118D
:102D4000DFF8F0030021C0F8B41110BD10B5DFF8B2
:102D5000200604002300002214210A2000F0B2FC07
:102D6000DFF810060400230000220E21202000F0CE
:102D7000A9FCDFF8040604002300002232213220DF
:102D800000F0A0FC10BD10B584B0DFF8F005040021
:102D9000230000220121022000F094FCDFF8E0056E
:102DA0000400230000220621122000F08BFC98482A
:102DB00000684078000649D4DFF8A005C078C0B2AA
:102DC000000930308DF80000DFF89005C07810F071
:102DD0000F0030308DF80100DFF880058078C0B238
:102DE000000930308DF80200DFF87005807810F0AF
:102DF0000F0030308DF80300DFF860054078C0B276
:102E0000000930308DF80400DFF85005407810F0EC
:102E10000F0030308DF80500DFF840050078C0B2B3
:102E2000000930308DF80600DFF83005007810F02A
:102E30000F0030308DF8070000208DF8080000AB3F
:102E400000220C21222000F03DFC06E0DFF8D834FF
:102E500000220C21222000F035FCDFF81C050400C4
:102E6000230000223221322000F02CFC1FBD10B5BF
:102E7000DFF810050400230000220121022000F0E9
:102E800021FCDFF8040504002300002208211220A1
:102E900000F018FCDFF8F4040400230000220821ED
:102EA000222000F00FFCDFF8D004040023000022F1
:102EB0003221322000F006FC10BD10B5DFF8D0043E
:102EC0000400230000220C210A2000F0FBFBDFF8A5
:102ED000583400220C21222000F0F4FBDFF8980483
:102EE0000400230000223221322000F0EBFB10BD51
:102EF0003EB5DFF8A0040400230000220C210A20C4
:102F000000F0E0FB00200500EDB2122D0FD2EDB273
:102F1000DFF81404285C002805D0EDB200A82A21AF
:102F200029546D1CF0E7EDB200A80021295400AB34
:102F300000220C21222000F0C5FBDFF83C04040035
:102F4000230000223221322000F0BCFB37BD10B537
:102F5000DFF844040400230000220A210A2000F0C4
:102F6000B1FBDFF8380404002300002216212020E2
:102F700000F0A8FBDFF8EC030068DFF8E413096851
:102F800001F56A416031884201D300F0DBF910BDE0
:102F900010B5DFF80C040400230000220A211220DF
:102FA00000F090FBDFF8D003040023000022322160
:102FB000322000F087FB10BD0000000080000010F0
:102FC00010B5DFF8E00304002300002201210220F5
:102FD00000F078FBDFF8D003040023000022012179
:102FE000122000F06FFBDFF8C4030400230000226E
:102FF0000121222000F066FBDFF87C03040023009F
:1030000000223221322000F05DFB10BD5C2F001049
:10301000602F001010B5DFF8980304002300002291
:103020001021102000F04EFBDFF84C0304002300B9
:1030300000223221322000F045FB10BD642F001029
:10304000682F00105025001010B5DFF86803040049
:10305000230000220121022000F034FBDFF8580396
:103060000400230000220121122000F02BFBDFF8D6
:1030700008030400230000223221322000F022FB4A
:1030800010BD0000702500109025001030260010A3
:10309000B0250010D025001010B500F0EBFBDFF8D4
:1030A000C8124873DFF8C002407B0C280CD1DFF84F
:1030B0000C030400230000220121022000F002FB87
:1030C0000B20FEF76DFC34E0DFF89C02407B092802
:1030D0000CD1DFF8EC0204002300002201210220C1
:1030E00000F0F0FA0B20FEF70EFC22E0DFF8780289
:1030F000407B06281DD1DFF8CC020400230000220B
:103100000121022000F0DEFA0B20FEF749FCDFF877
:10311000B8020400230000220121322000F0D2FA7C
:10312000DFF854020400230000223221322000F094
:10313000C9FA10BD3025001050260010F0250010EF
:10314000102600107026001090260010D0260010C7
:10315000B026001010B584B0DFF870020400230020
:1031600000220121022000F0ADFA6EA00400DFF879
:10317000FC0100684EF66021B0FBF1F010F00F008A
:1031800030308DF80000DFF8E401006841F2707122
:10319000B0FBF1F010F00F0030308DF80100DFF8D7
:1031A000CC0100684FF41671B0FBF1F010F00F0085
:1031B00030308DF80200DFF8B40100683C21B0FB2C
:1031C000F1F010F00F0030308DF8030020788DF80A
:1031D000040060788DF8050000208DF8060000AB33
:1031E00000221C21022000F06DFADFF8E401040047
:1031F000230000220121122000F064FADFF8D4013C
:103200000400230000223221122000F05BFADFF8D4
:10321000C8010400230000220121322000F052FAEC
:1032200055480400230000223221322000F04AFADF
:10323000DFF8A8010068DFF8A811097888420AD0F1
:103240004A480068401C49490860DFF89401DFF8EB
:103250008C110968017000F00DFB43494873424826
:10326000407B062804D00120FEF79AFB00F05EF8B0
:103270001FBD10B55B48040023000022012102207D
:1032800000F020FA584804002300002201211220F7
:1032900000F018FA2AA004002300002232210220A4
:1032A00000F010FA4D4800684D490978884208D06E
:1032B0002E480068401C2D49086049484749096864
:1032C000017000F0D7FA284948732748407B062848
:1032D00004D00120FEF764FB00F028F810BD10B503
:1032E00034480400230000220121022000F0EAF902
:1032F00037480400230000220121122000F0E2F9E7
:103300003A480400230000220121222000F0DAF9CB
:1033100019480400230000223221322000F0D2F9A3
:1033200010BD0000B7D600001C2F00100A48012174
:1033300001702F48006880682D49086070470000C0
:1033400075700000044801210170294800688069F7
:103350002749086070470000E22F0010482F001036
:10336000702F00108C2F0010302F00106C2F0010C9
:103370001472000004710000A872000020720000A6
:1033800014710000247100002C72000034710000E0
:10339000447100003872000054710000B0720000E7
:1033A00064710000B87000004472000050720000A8
:1033B0005C72000074710000847100009471000060
:1033C000A4710000B4710000687200007472000003
:1033D000CC700000B872000080720000C42E001093
:1033E000E32F0010C4710000D4710000E4710000EC
:1033F000602F001070B504000D0016002A00310087
:10340000200000F049FA200070BD000080B50022C5
:1034100040210020FFF72CFA01BD80B50122402198
:103420000020FFF725FA01BD80B501224FF480414D
:103430000420FFF71DFA01BD80B500224FF4807112
:103440000020FFF715FA01BD80B501224FF480710D
:103450000020FFF70DFA01BD00B587B0002206215C
:103460000020FFF7FCF8022207210020FFF7F7F801
:10347000002208210020FFF7F2F802220921002093
:10348000FFF7EDF800220E210420FFF7E8F80122F3
:1034900040210020FFF7C1F901224FF48071002084
:1034A000FFF7BBF901224FF480410420FFF7B5F983
:1034B00000A800F07AFA00A9DFF8A40300F04BFAA4
:1034C0000121DFF89C0300F083FAFFF7A6FFFFF766
:1034D000ABFF00F060F807B000BD70B504000D0050
:1034E0002100C9B2DFF8780300F07FFA060030004F
:1034F000C0B270BDF8B504000D001600FFF786FFDE
:10350000EDB2012D02D1FFF797FF01E0FFF79CFF1D
:1035100000200700FFB2F6B2B74206D20821207899
:10352000FFF7DBFF641C7F1CF4E7FFF776FFF1BDBC
:1035300010B5DFF8300315210170DFF828030021F2
:103540004170DFF820033F218170DFF818037521F7
:10355000C170DFF8100300210171DFF808033F217B
:10356000417106220121DFF8FC02FFF7C3FF402270
:103570000021DFF8F002FFF73DFF00200400E4B275
:10358000402C07D240220021DFF8D802FFF7B2FF1B
:10359000641CF4E710BD10B5DFF8C842AE202070FF
:1035A000641CB3202070641C91202070641CA8202F
:1035B0002070641C3F202070641CA2202070641CBA
:1035C00044202070641CA1202070641C0020207006
:1035D000641CA0202070641C63202070641CAD203B
:1035E0002070641C02202070641C81202070641CE8
:1035F00040202070641C86202070641CBE20207037
:10360000641C02202070641CBF202070641C0E20EB
:103610002070641CA4202070641C23202070641C73
:1036200001202070641C24202070641C0020207065
:10363000641C00202070641C3F202070641C3F200C
:103640002070641C00202070641CAF202070641C5B
:103650001E2201218348FFF74DFFFFF769FF10BDD0
:10366000F8B50400260000200500EDB2042D23D299
:1036700016F003000700FFB2002F05D0022F0DD077
:1036800007D3032F0FD013E0EDB200A80021295477
:103690000EE0EDB200A80F21295409E0EDB200A818
:1036A000F021295404E0EDB200A8FF212954FFE7DE
:1036B000F6B2B6086D1CD8E70422002100A8FFF777
:1036C00019FFF1BD2DE9F34F81B014009A46BAF10C
:1036D000000F00F0C2809DF80400402880F0BD80FB
:1036E0009DF80800402880F0B8809DF808008146C9
:1036F0009DF8040006009AF80000002800F0AD8054
:103700009AF80000A02842D2564815210170554869
:1037100080F80190534819F10301817051487521D7
:10372000C170504806714F4816F10B0141710622D5
:1037300001214C48FFF7DEFE9AF800000C214A4AAE
:1037400001FB0020B0F5C0700700002080465FFA42
:1037500088F8B8F10C0F15D2E4B2012C06D15FFA4B
:1037600088F818F80700C043050004E05FFA88F8FD
:1037700018F8070005002800C0B2FFF771FF18F124
:103780000108E4E719F103091AF1010AB3E7354822
:1037900015210170334880F80190324819F1070172
:1037A000817030487521C1702E4806712D4816F180
:1037B0000B014171062201212A48FFF79BFE0020E0
:1037C00080465FFA88F8B8F1520F1DD25FFA88F888
:1037D000264830F8180080B2000A8DF800005FFA21
:1037E00088F8224830F8180083469AF800009DF8BF
:1037F0000010884205D19AF801005FFA8BFB58450A
:1038000002D018F10108DCE75FFA88F8182018499F
:1038100000FB08100700002080465FFA88F8B8F126
:10382000180F15D2E4B2012C06D15FFA88F818F807
:103830000700C043050004E05FFA88F818F80700A5
:1038400005002800C0B2FFF70BFF18F10108E4E7FC
:1038500019F106091AF1020A4DE7BDE8F78F0000D9
:1038600000000340082E0010D8670000486F0000D9
:103870003C3C000010B5002000F0E3F80400B4F573
:10388000AF7F01D2062005E0B4F5E27F01D2092026
:1038900000E00C2010BD000062F30F2262F31F4213
:1038A000401810F0030308D0C91A1FD3DB0748BF24
:1038B00000F8012D28BF20F8022D130030B4144663
:1038C0001546103928BF20E93C00FAD8490728BF1F
:1038D00020E90C0048BF40F8042D890028BF20F8DB
:1038E000022D48BF00F8012D30BC7047C91818BF21
:1038F00000F8012DCB0728BF00F8012D704700000C
:103900002DE9F84304000D000120FEF7DDFF81469C
:10391000002007005FF0FF3080460220060045458A
:103920000DD2781C7043B9FBF0F080464545F6D2C5
:103930007F1CFF2FF3D900200700B61CEFE720689B
:10394000C0B220602068390289B208432060F0B21A
:103950002061BDE8F18370B504000D001948844270
:1039600005D101215FF40010FEF7C6FF09E01648FB
:10397000844205D101214FF48060FEF7BDFF00E0D5
:1039800012E06868A9680843296908432968084360
:1039900080B206002660287B10F00F0006006660EB
:1039A00069692000FFF7ACFF70BD00214160002174
:1039B000816006494161072101600021C160002149
:1039C0000161704700800840000003408096980025
:1039D000C9B2012904D1426852F00202426003E0F8
:1039E000426812F00D024260704770B504000D008D
:1039F000EDB2A5600121200000F007F80028F9D001
:103A0000E0680600A068C0B270BDC068084201D07E
:103A1000012000E00020C0B270470000010000203B
:103A200000231A00D2B2102A09D2D2B2C9B24F4B27
:103A300013EB411333F812301818521CF2E7000947
:103A4000704710B504002000C0B2FFF7E7FF10BDBB
:103A500080B54FF4807200214448FFF7CBFC082268
:103A600000214348FFF7C6FC012217210020FEF782
:103A7000F6FD012218210020FEF7F1FD03221F218F
:103A80000120FEF7ECFD03220C210020FEF7E7FDEC
:103A900003220C210020FEF7E2FD3649364800F0F3
:103AA0006FF80121344800F090F8002200213248DC
:103AB00000F097F8002201212F4800F092F8002230
:103AC00005212D4800F08DF8002206212A4800F03B
:103AD00088F800220721284800F083F801220021FD
:103AE000254800F08EF800220121234800F089F8D3
:103AF00000220521204800F084F8002206211E48FB
:103B000000F07FF8002207211B4800F07AF800211E
:103B1000194800F050F801BD38B5174800F08CF88E
:103B20000500680020D5144800F086F8C0F3026054
:103B300005001248295C104800F074F804000C4895
:103B4000285C0A4911EB451121F810400848285C0F
:103B5000401C074968540648285C102190FBF1F28C
:103B600002FB110202482A5431BD0000082D00104A
:103B7000402F0010801A0600004003409872000099
:103B8000F8B504000D0001214FF48050FEF7B4FE9B
:103B9000002020605FF4001006000120FEF794FE74
:103BA00007001F2000FB05F0B7FBF0F0471E56EAA8
:103BB00007262660F1BD026832F0E062026002680A
:103BC000C9B252EA016202607047026832F4803280
:103BD0000260C9B2002903D0026852F48032026048
:103BE000704710B4C36801248C40A343C360D2B2B1
:103BF000002A04D0C36801248C402343C36010BC56
:103C0000704710B4D2B2012A05D1036801248C4058
:103C10002343036004E0036801248C40A343036052
:103C200010BC70470200C9B212EB81031B69180077
:103C3000C0F30B1080B270474068704740005F00CF
:103C4000D00731041A028A00840084004A014A0124
:103C50002102100421009A07880488048B048A0436
:103C6000AA049A048A0682008200FD078800880060
:103C7000F4078400F6079504F4079400A4004400B8
:103C8000A40114060000FE0322022202FE03220207
:103C90002202FE032202220222028103FE0302020A
:103CA000FE030202FE0320002200FE032100FC01AD
:103CB0002000FF070200BE0789048804BF049407A0
:103CC0002200FD030402FC030402FC03440252012F
:103CD000DF0040049E0712005E0052025E01D20423
:103CE00052049A0710002000FF071000880004010A
:103CF000FE03880288008804840403071000100073
:103D0000FF0111011101FF0111011101FF01110456
:103D10001004E0074000CF0324020401E207AE04D0
:103D2000EB07AA04EA07AE04AA041006100020005C
:103D3000FF0701040000FF0720002400E403240023
:103D40002A00F10708000401FE031000FF074401E8
:103D500032028D0460001E02C0013E008800AA00ED
:103D60008800BF074C029A02A90284029F02120136
:103D70008C025304E20124012001200117060400F3
:103D8000F403240244018C0044013006FE03520275
:103D9000FE032000FF072000FC01040104012401B0
:103DA0002401FF0784000401E4072F0024012601F9
:103DB000EE072501240124012401D4078200F20723
:103DC0001104F5071300F20751055B05F0075405D0
:103DD00053051006FC0104010401FC010000FF076B
:103DE00008000400FC030002000280018200A4001D
:103DF000E00390008700F407440144012405140601
:103E00000A00F107F403240244018F004401B406C0
:103E10008C00E7038400F407840086005E025001F2
:103E200089048A0274010202FD050401FC01880074
:103E30005000FF0780008700F50785008300FD071D
:103E40008500950493049104F107010410002000FB
:103E5000FF0708000800F803080208020402040231
:103E60000202C101800280048000FF078000800000
:103E7000BE00880008010805780607040000FE035C
:103E800022022202FE0322022202FE032202220258
:103E90002202810320004000FC07040404040404FF
:103EA000FC070404040002000200010000000000FE
:103EB000FE03000000000000000000000000000001
:103EC000FF07000044014402E20729013701E4072B
:103ED00022012F01E0072C012301E007F0030F026C
:103EE000240224022202EE070B040A04FA050E043F
:103EF0000A0400034100FA074000F0034300FA07F8
:103F00001202F2031202F2031602120384004401A9
:103F10002F02D20505007F0454057C055705740562
:103F2000540454060C0010002000200050005000E3
:103F300050008800880004010202010410001000F3
:103F4000F80304020A01D0003000FC070B04080447
:103F5000F80708042000FF071104A0004A022A0500
:103F6000F1050C00200022022202FE03F0030F02E2
:103F7000240224022202EE070B040A04FA050E04AE
:103F80000A0400030400E40704041F040404C40733
:103F90001C04070404040404E40706042000500081
:103FA00088000401FB0620002000FE0320002401FD
:103FB00022023104C8073F01A500DE0753044C0567
:103FC000520561055E0512019E0252044100420045
:103FD000F80720009000F30382008200FA078200B5
:103FE0008200FD0744008400F4072F024401F40717
:103FF0008C00F7074402640284017606DE03520255
:10400000DE0320012002FF0750008C010306DE03BF
:104010005202DE03880088004401240216042502AF
:104020002402240224022402240214020000FF07B6
:10403000400040002000B00028012402230420009A
:104040002000200010001000FF070800E403040116
:104050008600F507840084008400C400100010006E
:10406000FF070800880084008600E50384008400C0
:104070008400F40742024202EE074102F707020001
:10408000E2072F04E2072A04E6072204F1011201E5
:104090001001F0010300FA034200FE074200A600EF
:1040A00012010806FE03020202020202FE032000C1
:1040B0002000E403240024002A00F10700020F027C
:1040C0000902E90709020F024902890289020F0267
:1040D0000902800308000803C80038000800FF0731
:1040E000480048008800280118060800FE03220244
:1040F0004202FF072202FE032202FE032000FE030B
:104100002000FF070000FE070200420042004200BC
:10411000FA034200420142024200FD0740008100D2
:10412000FA0720001002F90702045001500152055D
:10413000490544068800F8070400E4032602E50365
:104140000400F4071404E4038400C40040004000A9
:1041500040004400C40344004400440044004400C0
:104160004400FF072000500088000401FB062000E7
:104170002000FE0320002401A800FF070804AA0372
:104180009D008900BF0789029D02AB028902890256
:10419000BF0240020000FE038800880088008800FB
:1041A000FF07880088008400840082000000FE036E
:1041B000000000000000FF078800880088008404D9
:1041C0008204010700020F020902E90709020F0237
:1041D0004902890289020F020902800388008800CF
:1041E000040104010202FD0510011001080108018B
:1041F0000401E20004000400FC0702000200FE03C8
:1042000000020002FF0200020002C0010000DE07FF
:10421000520452045E035200D2075E055205520258
:104220005205D9040800FC018A0070008C011306B5
:104230001000FE01080108010401C200DE03520261
:10424000DE0320012002FF0750008C010306DE037D
:104250005202DE03F9012201C000F8034B02FA0307
:104260004A02FA034A024A030200FD07440084009E
:10427000FA070200F3030200F2030200F203120243
:10428000F2031202200020002000FE03220222027C
:104290002202FE0322022000200020008800970452
:1042A000A4028400EF072404E6072E04E507240493
:1042B000240424064200DE0729012000FE0320001A
:1042C000FF078000FF0784008800E0004200DE074F
:1042D0002901000008010401F60705011401240169
:1042E0000401C40142024202EE074102F707020044
:1042F000E2072F04E2072A04E6072204F101120173
:104300001001F0010300FA034200FE074200A6007C
:10431000120108060800C8079E04880448063F00EA
:10432000C8074A047A04CA070E00F9070202040209
:104330000002F0070702240244024402040284033C
:104340000A00F10720004000FC0704040404FC07F5
:104350000400FC070C040A04FA07090480008E001C
:104360008000C0079F04840482048A0491045F04CF
:10437000400420030000FE030002000202020202C9
:10438000FE030200020002040204FC070400E4032E
:1043900002018900470124021204EF0380008C000F
:1043A0008300F00720002000F903120050004800AD
:1043B000F807400052014902440460008400840070
:1043C000F20789008700E4030200EF0320022C02B9
:1043D000E303200220002100E207100450024800FD
:1043E0004000A400A20011010802040480B50C22C0
:1043F0000021DFF8D005FEF7FDFFDFF8C80500213A
:10440000416206220021DFF8C005FEF7F3FFDFF866
:10441000B4050021816210220021DFF8B005FEF70B
:10442000E9FFDFF8A005002180F822100C2200210E
:10443000DFF89C05FEF7DEFFDFF8940500214162FE
:1044400006220021DFF88C05FEF7D4FFDFF8800597
:104450000021816210220021DFF87C05FEF7CAFFEF
:10446000DFF86C05002180F82210DFF870050021CC
:104470000170DFF86C0500210170DFF8680500218C
:104480000170DFF8640500210170DFF8600500218C
:104490000160DFF85C0500210160DFF858050021AC
:1044A0000180DFF854050021016001BD2DE9F84FBE
:1044B0005FF000095FF0000AFDF715F9012840F0F0
:1044C0007D82DFF838050078C043DFF830150870CA
:1044D000DFF82805007880465FEAC87003D50A2017
:1044E000FDF711FA02E00A20FDF75AFADFF810058D
:1044F00090F801010700DFF80805002180F802119B
:10450000DFF8FC04002180F80111DFF8F404002139
:1045100080F80011FFB2082FC0F05082DFF8E004ED
:104520000078012840F04A820120FEF7D3F80122EA
:10453000FFB2B91EDFF8C804FEF7F8F88146484616
:1045400005001FFA89F95FEA19200600FFB2DFF8BB
:10455000B004381810F8020CEDB2854240F02D82FC
:10456000FFB2DFF89C04381810F8010CF6B286424E
:1045700040F02382DFF888044078032803D0102815
:1045800000F052811AE2DFF87C04DFF87414097835
:104590000170DFF87004DFF8681449784170DFF8C3
:1045A0006004007981465FEA0929DFF85404407904
:1045B00050EA09091FFA89F95FEA4909DFF844045A
:1045C00080F8029048460700DFF8340440888246AD
:1045D0001FFA8AFA5FEA0A2050EA1A2A1FFA8AFAB0
:1045E0005046142808D0282867D0322800F0B78019
:1045F000642800F0E280F2E0FFF73CF9DFF80814ED
:104600004873DFF80404407B062804D1DFF8F40384
:104610000121C17003E0DFF8EC030021C170DFF875
:10462000C4030078002804D1DFF8D8030021017109
:1046300006E0DFF8D003DFF8B0130978491C0171F8
:10464000002083465FFA8BFBBBF10C0F0FD25FFAA1
:104650008BFBDFF8B0031BEB00005FFA8BFBDFF88E
:1046600064131BF8011041711BF1010BEAE7DFF83D
:104670005403406A000EDFF88C134874DFF84403DB
:10468000406A000CDFF87C138874DFF83803406A56
:10469000000ADFF87013C874DFF86803DFF824132A
:1046A000496A0175DFF85C0300214175DFF85403A6
:1046B000DFF82C130978817591E0DFF83C0300687E
:1046C0004FF46161B0FBF1F0DFF83813C870DFF828
:1046D000280300684FF46161B0FBF1F201FB1200A6
:1046E0003C21B0FBF1F0DFF81C130871DFF8080380
:1046F00000683C21B0FBF1F201FB1200C149487196
:10470000C04800218171C1480068B8490968401A51
:10471000BF490860BE480068000ABA49C871B94874
:10472000BB4909680172B748BA49098889B2090AC0
:104730004172B448B74909888172B248AD490988C5
:1047400089B2090AC172AF48AA4909880173AD4804
:1047500000214173AB48A149097881733FE0A94822
:104760000021C170A7489F49097801719548806A66
:10477000000EA44948719348806A000CA1498871D1
:104780009048806A000A9F49C8719E488D49896A8D
:1047900001728C48406A000E9A4948728948406A02
:1047A000000C984988728748406A000A9549C87287
:1047B00094488449496A017311E000F0BFF99148B7
:1047C00095490978C1708F489349497801718D489E
:1047D0009149897841718B488F49C978817119F164
:1047E00003090120FDF776FF01221FFA89F94946E6
:1047F0008448FDF79BFF040020000500A4B2200AB6
:1048000006001FFA89F97F4809F800501FFA89F954
:104810007C4819EB0000467019F10200794981F8D3
:104820000101FCF7E5FDC9E076487549097801709A
:104830007448734949784170724871498978817028
:1048400070486F49C978C1706E486D490979017126
:104850006C486B49497941710120FDF73BFF01220A
:1048600006216848FDF762FF040020000500A4B29D
:10487000200A0600634885716248C67161480821B4
:1048800080F80111FCF7B4FD5E48007981465FEACB
:1048900009295C48407950EA09091FFA89F95FEA59
:1048A0004909574880F80290484607005548408813
:1048B00082461FFA8AFA5FEA0A2050EA1A2A07207B
:1048C00083461FFA8AFA5046002808D001280BD0E8
:1048D0000F283AD023283BD064285BD06EE0FFF746
:1048E00085FDFBF75BFF69E0002083465FFA8BFBE9
:1048F000BBF10C0F0DD25FFA8BFB41481BEB0000A4
:10490000C0795FFA8BFB32490BF801001BF1010BF8
:10491000ECE7002083465FFA8BFBBBF1060F0ED25B
:104920005FFA8BFB2A481BEB00005FFA8BFB3449D4
:104930001BEB0101C97C01731BF1010BEBE729485B
:1049400000210170FBF733FD38E0FBF789FD35E00E
:104950002B48007A012806D124482C4909680160B7
:10496000FBF7BBFD15E02648007A022811D120484C
:104970002649096801600120FDF712F80220FDF7C1
:104980000FF8264800210170164800210170FBF73E
:1049900011FE13E01A48C0791F4908701E481849D3
:1049A000097A41701C481649497A81701A4814499D
:1049B000897AC17000F099F900E0FFE7BDE8F18F56
:1049C00000000000742E0010802E0010862E0010B3
:1049D000482E0010542E00105A2E0010E42F001004
:1049E000E52F0010F02F0010EF2F0010742F001093
:1049F000782F0010D62F00106C2F0010F72F00100A
:104A0000F8280010FC290010302F0010982F0010FB
:104A1000A82F0010D42F0010482F0010E62F0010F0
:104A200010B440B24109714A012310F01F04A340A1
:104A300042F8213010BC704740B2002808D540B27F
:104A400010F00F026A4BD218CB0002F8043C03E0CE
:104A500040B2684ACB008354704780B5664800680E
:104A6000401C65490860FCF7F1FE00F062FAFCF7B3
:104A700058FE00F0DFF900F00AFC01BD80B500210E
:104A80005FF0402000F03EFD012815D15B48008812
:104A9000401C5A49088080B2642806D35748002138
:104AA00001801420FCF72FFF06E0544800885928A5
:104AB00002D11420FCF774FF00215FF0402000F0C9
:104AC00030FD01BD80B5012000F0FCFD012000F0AB
:104AD00033FE012000F01FFE01BD00B585B00120AE
:104AE0008DF80C000520049000208DF800000120B6
:104AF0008DF8010001208DF8030000208DF80200E0
:104B000003208DF804000120029003AA00215FF029
:104B1000402000F00AFD00A95FF0402000F07BFD7E
:104B200009210120FFF788FF0120FFF779FF01210C
:104B30005FF0402000F062FD05B000BD38B50020F8
:104B40000400A4B2032C05D200F0A2F8002801D082
:104B5000641CF6E7A4B2032C07D3294D06222900D2
:104B60002848FCF751FE00F0C0F831BD80B572B6A0
:104B7000FCF7C2FF00F03AFE00F05AFE00F019FA0E
:104B8000FCF72EFEFEF764FFFFF7D8FFFFF79AFF52
:104B9000FFF7A3FFFEF760FCFDF744FF62B601BD1F
:104BA00088B0FFF7E3FF00A800F014FEFFF77EFCDB
:104BB00001F022FAFEF7B0FFFBF72EFE01F096FAA5
:104BC0000D4800684FF4FA71B0FBF1F201FB1200DE
:104BD000002807D100A800F0FDFD0B4800A9202205
:104BE000FDF7CEFD00F013FADDE7000000E100E084
:104BF00018ED00E000E400E08C2F0010D82F00102A
:104C0000C0720000482F0010C42E00102DE9F041A2
:104C100082B004000D00160014F03F000700C4F33A
:104C200085108046B6B2009600232A00414689B21C
:104C3000380080B200F031FEBDE8F3812DE9F0418B
:104C400082B004000D00160014F03F000700C4F30A
:104C500085108046B6B2009600232A00414689B2EC
:104C6000380080B200F0AEFEBDE8F38110B402005F
:104C700000242000002423009BB289B28B4204D27E
:104C800014782018521C5B1CF6E7C0B210BC7047A9
:104C90002DE9F04100208046072227490020FFF738
:104CA000CDFF06212448FFF7E1FF804618F13308C5
:104CB000214880795FFA88F8804501D0012012E010
:104CC0001E4804001C4805000620060000200700BE
:104CD000FFB2F6B2B74205D2287820706D1C641C72
:104CE0007F1CF5E70020BDE8F0812DE9F0410020B0
:104CF00080461248040010480500062006000020E7
:104D00000700FFB2F6B2B74205D220782870641CC3
:104D10006D1C7F1CF5E706210748FFF7A7FF8046BB
:104D200018F133002870761C072203490020FFF792
:104D30006DFFBDE8F081000030210010482F001009
:104D400010B440B24109DFF89423012310F01F048E
:104D5000A34042F8213010BC704710B5002001F08C
:104D60006CFC0400E00718D5DFF8740390F8010824
:104D7000DFF86C13421C81F80128C0B2DFF8601321
:104D800011EB0011002001F0D5FBD54890F8010887
:104D900010F07F00D24981F80108012001F04DFC9C
:104DA0000400E00715D5CF4890F80108CD49421C12
:104DB00081F80128C0B2CB4911EB0011012001F0AC
:104DC000B9FBC84890F8010810F07F00C54981F888
:104DD000010810BD70B504000D00E4B2002C02D132
:104DE000C148060004E0E4B2012C01D1BF4806002E
:104DF00096F8000896F80118491C802291FBF2F3FE
:104E000003FB1213984213D01022290096F80108D0
:104E100016EB0010FCF7F8FC96F80108401C802106
:104E200090FBF1F202FB110286F80128002000E05D
:104E3000012070BD3EB401AAAD4B30CB30C2083B5F
:104E4000083A0022022A21DA01AB53F82230180076
:104E500083681900C1F307437F2B02D20B0E7F2B0F
:104E600012D301220260002202610022826000222D
:104E7000142A03DA0E234360521CF9E7C368009337
:104E80000123036100230360521CDBE737BC70473A
:104E900030B504000D00E4B2002C22D1904890F807
:104EA00000088F4991F80118884240D028008C49A9
:104EB00091F800188A4A12EB01111022FDF760FCEC
:104EC000874890F80008401C854981F8000884480C
:104ED00090F8000810F07F00814981F80008002058
:104EE00026E0E4B2012C22D17E4890F800087D49EA
:104EF00091F8011888421AD028007A4991F80018D0
:104F0000784A12EB01111022FDF73AFC754890F82F
:104F10000008401C734981F80008724890F80008A6
:104F200010F07F006F4981F80008002000E00120A8
:104F300030BD80B56C4890F801086B4991F80018B5
:104F4000884216D0684890F80008674911EB0011B4
:104F5000002001F01FFA01280BD1634890F80008E7
:104F6000401C802190FBF1F202FB11025E4880F8A8
:104F700000285E4890F801085C4991F800188842C2
:104F800016D05A4890F80008584911EB001101203A
:104F900001F000FA01280BD1544890F80008401C99
:104FA000802190FBF1F202FB1102504880F80028AA
:104FB00001BD80B5042215210020FDF750FB04221D
:104FC00016210020FDF74BFB022204210020FDF7F3
:104FD00046FB022205210020FDF741FB4549012047
:104FE00001F06FF94349002001F06BF90122002123
:104FF000002001F0D8FA01220021012001F0D3FAAB
:105000001920FFF79DFE022001F0FEFA01BD00B558
:1050100089B004A90020FFF73BFF002829D104989C
:10502000012826D101208DF80D00022000900820D3
:105030008DF80C0000208DF80E0011208DF8040072
:1050400022208DF8050033208DF8060044208DF8CD
:10505000070055208DF8080066208DF8090077209C
:105060008DF80A0088208DF80B0000A90020FFF7BA
:10507000B1FE214800682149096811F5FA7188429A
:105080002AD31E481C490968016001208DF80D00D3
:105090001B48009008208DF80C0000208DF80E00B1
:1050A00001208DF8040002208DF8050003208DF802
:1050B000060004208DF8070005208DF80800062062
:1050C0008DF8090007208DF80A0008208DF80B00E4
:1050D00000A90020FFF77EFE09B000BD00E100E05E
:1050E0002001001024090010281100102C190010B4
:1050F000A072000090D003008C2F0010502F0010E1
:10510000AA5A550A10B500200400E4B2082C13D2A4
:1051100000220120E4B2DFF8601311EB440191F9A1
:10512000011010FA01F1E4B2DFF84C0310F814009A
:10513000FDF773FB641CE8E704200400E4B2082CCC
:1051400024D201220120E4B2DFF82C1311EB440138
:1051500091F9011010FA01F1E4B2DFF81C0310F824
:105160001400FDF75AFB00220120E4B2DFF8081317
:1051700011EB440191F9011010FA01F1E4B2BE48BB
:1051800010F81400FDF774FB641CD7E710BD10B5D0
:1051900000200400E4B2082C11D200220120E4B265
:1051A000B54911EB440191F9011010FA01F1E4B293
:1051B000B14810F81400FDF730FB641CEAE700204A
:1051C0000400E4B2042C21D201220120E4B2AA4955
:1051D00011EB440191F9011010FA01F1E4B2A64873
:1051E00010F81400FDF719FB00220120E4B2A249D7
:1051F00011EB440191F9011010FA01F1E4B29E485B
:1052000010F81400FDF734FB641CDAE710BD70B52C
:10521000002600200500EDB2042D15D2EDB296480F
:1052200010F81500FDF737FB04000120EDB292499C
:1052300011EB450191F901108840044202D101208F
:10524000A84006436D1CE6E73000C0B270BD70B5E3
:10525000002604200500EDB2082D15D2EDB28648D7
:1052600010F81500FDF717FB04000120EDB282498C
:1052700011EB450191F901108840044202D101204F
:10528000A84006436D1CE6E73000C0B270BD38B5DB
:105290007A48C078012800F0EE80794800687749A4
:1052A0004969401A0528C0F0E680744874490968C5
:1052B00041617248407800280DD0022827D012D3CF
:1052C00004284BD042D3062800F0838060D30728FF
:1052D00000F0BC80CFE0FFF715FF68484078401C25
:1052E00066494870C7E0FFF792FF0500002D07D020
:1052F0006248057461484078401C6049487002E08B
:105300005E48002101745D4800210170B3E0FFF7A1
:105310007EFF05005948007C85420DD15748007832
:10532000401C56490870C0B206280ED35348407836
:10533000401C5249487008E05048002101704F4815
:10534000002101744D480121417094E0FFF71FFFD7
:105350004A484078401C494948708CE0FFF777FF85
:105360000500002D0AD04548007C281843490874E0
:1053700042484078401C4149487005E03F480021C0
:1053800001743E48002141703C480021017072E0E8
:10539000FFF75DFF05003948007C10F0F000854202
:1053A0000DD136480078401C34490870C0B2062838
:1053B0000ED332484078401C3049487008E02F48EE
:1053C000002101702D48002101742C4800214170FA
:1053D00051E000200400E4B2112C08D22748007CE0
:1053E000E4B22849615C884201D0641CF3E7E4B26E
:1053F000112C09D32148002101702048002101749B
:105400001E480021417036E01C4800791B494018B5
:1054100084711A480079401C0A2190FBF1F201FBCB
:105420001200040015484079E4B2844203D11348C5
:105430000121C17001E01148047110484078401CFE
:105440000E4948700B20FCF7F2FA14E00B48807804
:105450000A49421C8A70C0B215280BD307480021A4
:105460008170064800214170044800210170034802
:1054700000210174FFE731BDF4710000042F00101A
:105480008C2F0010E070000038B504000120FDF7FB
:105490001BFA0500280032BD2DE97043060088463E
:1054A0003000FFF7F1FF002104000D005FF000095C
:1054B000A8FB040108FB051109FB04114B4A00235A
:1054C000FDF736FA04000D002000BDE870830100EE
:1054D0005FF0FF30B1F1402F02D10022100010E048
:1054E000434A914202D1012210000AE0414A91420E
:1054F00002D10222100004E03F4A914201D103226E
:105500001000704710B40200106801248C40204045
:105510000300DBB2002B01D0012000E0002010BC12
:10552000704701228A40026070472DE9F041040073
:105530000D001600B4F1402F04D101210220FDF727
:10554000DBF918E02A48844204D101210420FDF748
:10555000D3F910E02748844205D101215FF480008F
:10556000FDF7CAF907E02448844204D101215FF421
:105570000000FDF7C1F9A06A80088000A062A06A5F
:10558000A0620020A060002020610020E060606830
:1055900050F002006060606830F002006060EDB2C0
:1055A000002D10D137003878002803D17868401ECC
:1055B000E06015E02000FFF78AFF7968FFF76CFFD5
:1055C000401EE0600CE0B046A06A30F00C00A06223
:1055D00098F80100012803D1A06A50F00400A062ED
:1055E0005FF0FF302060BDE8F081000040420F0016
:1055F000008000400000094000400940C9B2012974
:1056000004D1426852F00102426003E0426852084D
:1056100052004260704730B40A78002A05D0022A4E
:1056200009D005D3032A09D00BE08A68826109E01A
:105630008A68C26106E08A68026203E08A684262A0
:1056400000E0FEE7426907230C7803256C43A34082
:105650009A4342614A78002A07D0426901230C78B4
:1056600003256C43A3401A434261CA78002A08D03C
:10567000426901230C7803256C43641CA3401A4340
:1056800042618A78002A08D0426901230C780325F8
:105690006C43A41CA3401A434261C26B03230C78E1
:1056A0006400241DA3409A43C263C26B0B7913F0BC
:1056B00003030C786400241DA3401A43C26330BC6A
:1056C0007047000070B504000020FDF7FDF80500EC
:1056D0004FF47A70B5FBF0F05FF08071B1FBF0F041
:1056E00000F0B8FF0600200000F0B4FF0100300019
:1056F00000F0C0FF00D2FEE71848006850F0040038
:10570000164908604FF47A70B5FBF0F06043401E14
:105710001349086070BDC0B2012806D10F4909685D
:1057200051F001010D4A116005E00C490968490872
:1057300049000A4A11607047C0B2012806D10749E2
:10574000096851F00201054A116005E00349096842
:1057500031F00201014A11607047000010E000E0E2
:1057600014E000E010B440B241092C4A012310F0CB
:105770001F04A34042F8213010BC704740B20028FB
:1057800008D540B210F00F02254BD218CB0002F81A
:10579000043C03E040B2234ACB008354704710B569
:1057A0000121214800F0FEFF002808D000211E48FA
:1057B00000F09AFF040001211B4800F0FBFF0221CA
:1057C000194800F0EFFF002803D00221164800F02E
:1057D000F1FF10BD10B504001449134800F0BBFFE1
:1057E000200012492022FCF7CBFF10BD80B50E48E7
:1057F00000F052FF1120FFF7B5FF09211120FFF73C
:10580000BDFF094800F05AFF0121074800F05FFF83
:105810000021054800F0D2FF01BD000080E100E05A
:1058200018ED00E000E400E000400240E42E00102B
:1058300038B5A748002101600020FDF745F80500B4
:10584000A448B5FBF0F0401E0400A3480460A34840
:10585000B5FBF0F00F2148434FF47A71B0FBF1F043
:10586000401C04009D48B5FBF0F0372148434FF43D
:105870007A71B0FBF1F0401C54EA00249748B5FB64
:10588000F0F0232148434FF47A71B0FBF1F0401C53
:1058900054EA00449248046031BDF0B4049D1700FE
:1058A000904C5FF0A05CC4F800C0DBB2012B02D1C9
:1058B000C40709D5FEE7DBB2022B05D15FF0030C6C
:1058C00010EA0C0F00D0FEE780B210F03F04DFF8C2
:1058D00018C2CCF80040834C5FF0806CC4F800C064
:1058E00000242600AE426BD2DBB2002B0CD17F4CE1
:1058F0005FF0030CC4F800C03C78DFF8F4C1CCF8CA
:1059000000407F1C401C1BE0DBB2012B0CD1774C0C
:105910005FF0040CC4F800C03C78DFF8D4C1CCF8C8
:1059200000407F1C801C0BE0704C5FF0050CC4F83D
:1059300000C03C78DFF8B8C1CCF800407F1C001DE7
:1059400080B2402801D3012400E00024B5F1010C0D
:10595000664502D15FF0010C01E05FF0000CE4B29B
:105960005FFA8CFC5CEA0404002C17D05D4C5FF0FD
:10597000805CC4F800C089B211F03F04A401DFF8D4
:1059800068C1CCF80040594C5FF0060CC4F800C068
:10599000584C2468C4F30074002CF9D080B240281D
:1059A0000CD300242000491C4F4C5FF0000CC4F8BD
:1059B00000C089B2402901D300242100761C91E760
:1059C000F0BC7047F0B4049C1600464F5FF0A05C3A
:1059D000C7F800C089B211F03F0780B210F03F0C49
:1059E0005CEA8717DFF800C1CCF80070DBB2002B4F
:1059F00005D13E4F5FF0080CC7F800C015E0DBB2E0
:105A0000012B07D1394F5FF0090CC7F800C0C70759
:105A10000BD5FEE7354F5FF00A0CC7F800C05FF00A
:105A2000030C10EA0C0F00D0FEE700273D00A54252
:105A30004CD22C4F5FF0806CC7F800C0DBB2002B5B
:105A400005D12D4F3F683770761C401C0DE0DBB24E
:105A5000012B05D1284F3F683770761C801C04E06D
:105A6000254F3F683770761C001D224F3F68C7F3F3
:105A70008067002FF9D080B2402825D30027380056
:105A8000491C89B211F03F0780B210F03F0C5CEA6C
:105A90008717DFF854C0CCF80070DBB2002B05D1BB
:105AA000124F5FF0080CC7F800C00DE0DBB2012B0D
:105AB00005D10E4F5FF0090CC7F800C004E00B4F92
:105AC0005FF00A0CC7F800C06D1CB0E7F0BC70476F
:105AD00098002000D8B805009400200040420F0034
:105AE00090002000E80F20008400200080002000AB
:105AF00088002000E00F20008C0020000FB430B49C
:105B000000209DF809412200DFF89C450025257002
:105B100000242100C9B2D2B2914216D2C9B202AC5D
:105B20000C5D682C0FD1DFF8804521700B00DBB2D3
:105B3000D2B2941EA34205DADBB202AC1C5D20187F
:105B40005B1CF4E701E0491CE4E7C0B230BC04B0E0
:105B5000704730B4002423000C782200D2B214091C
:105B6000E4B20A256C43230012F00F02D2B2D3181C
:105B70004C782200D2B21409E4B24FF47A7505FBD6
:105B8000043312F00F02D2B2642404FB02338C7887
:105B90002200D2B21409E4B2DFF8105505FB043339
:105BA00012F00F02D2B242F2107404FB0233CC782E
:105BB0002200D2B21409E4B2DFF8F45405FB043336
:105BC00012F00F02D2B2DFF8EC4404FB02330360A0
